:020000040800F2
:1000000000000120E50F00080103000803030008B9
:1000100005030008070300080903000800000000AA
:100020000000000000000000000000000B030008BA
:100030000D030008000000000F0300081103000872
:100040002D1000082D1000082D1000082D1000089C
:100050002D1000082D1000082D1000082D1000088C
:100060002D1000082D1000082D1000082D1000087C
:100070002D1000082D1000082D1000082D1000086C
:100080002D1000082D1000082D1000082D1000085C
:100090002D1000082D1000082D1000082D1000084C
:1000A0002D1000082D1000082D1000082D1000083C
:1000B0002D1000082D1000082D1000082D1000082C
:1000C0002D1000082D1000082D1000082D1000081C
:1000D0002D1000082D1000082D1000082D1000080C
:1000E0002D1000082D1000082D1000082D100008FC
:1000F0002D1000082D1000082D1000082D100008EC
:100100002D1000082D1000082D1000082D100008DB
:100110002D1000082D1000082D1000082D100008CB
:100120002D1000082D1000082D1000082D100008BB
:1001300000000000000000000000000000000000BF
:1001400000000000000000000000000000000000AF
:10015000000000000000000000000000000000009F
:10016000000000000000000000000000000000008F
:10017000000000000000000000000000000000007F
:10018000000000000000000000000000000000006F
:10019000000000000000000000000000000000005F
:1001A000000000000000000000000000000000004F
:1001B000000000000000000000000000000000003F
:1001C000000000000000000000000000000000002F
:1001D000000000000000000000000000000000001F
:0401E0005FF8E0F1F3
:1001E40010B5054C237833B9044B13B10448AFF36D
:1001F40000800123237010BD0400002000000000D3
:100204007810000808B5034B1BB103490348AFF34A
:10021400008008BD000000000800002078100008DD
:1002240082B0064B9A6942F004029A619B6903F01A
:1002340004030193019B02B0704700BF0010024009
:10024400FEE7000000B591B0012206924FF480331E
:100254000793002108910A9202220D920E934FF403
:10026400E0130F9306A800F0FDF808BB0F230193D9
:1002740002210291002303934FF4806204920593B8
:1002840001A800F015FBB8B900F0CEFB0C4BA3FBA2
:100294000030800900F02CFD042000F03FFD002216
:1002A40011464FF0FF3000F0EFFC11B05DF804FB95
:1002B4008D210448FFF7C4FF9B210248FFF7C0FFCC
:1002C400D34D6210A410000808B500F083F8FFF7BE
:1002D400B9FFFFF7A5FF00F01DFE00F039FE4FF453
:1002E4007A7000F097F8034BDA68034B1A60014BFD
:1002F4001B68FCE700380140200000207047FEE73F
:10030400FEE7FEE7FEE770477047704708B500F068
:1003140073F800F014FD08BD00B583B0214B9A6951
:1003240042F001029A619A6902F001020092009A75
:10033400DA6942F08052DA61DB6903F08053019399
:10034400019B032000F08EFC002211466FF00B008D
:1003540000F09AFC002211466FF00A0000F094FCB1
:10036400002211466FF0090000F08EFC00221146B5
:100374006FF0040000F088FC002211466FF00300C7
:1003840000F082FC002211466FF0010000F07CFCBA
:10039400002211464FF0FF3000F076FC03B05DF808
:1003A40004FB00BF0010024010B50446074B186858
:1003B400074BA3FB0030800900F09AFC0022214681
:1003C4004FF0FF3000F060FC002010BD0000002062
:1003D400D34D621008B5074A136843F01003136045
:1003E400032000F03FFC0020FFF7DEFFFFF794FF3F
:1003F400002008BD00200240024A13680133136044
:10040400704700BF24000020014B1868704700BFEC
:100414002400002030B583B00190FFF7F5FF0546B6
:10042400019CB4F1FF3F00D00134FFF7EDFF401B06
:10043400A042FAD303B030BD82B0084B1B68084A0F
:10044400A2FB03235B0A00FB03F0019000BF019BA6
:100454005A1E0192002BF9D102B07047000000200F
:10046400D34D621070B582B00446036813F0010FD7
:100474002CD0AB4B5B6803F00C03042B1DD0A84BB2
:100484005B6803F00C03082B12D06368B3F5803F5C
:1004940041D0002B55D103F1804303F504331A688E
:1004A40022F480321A601A6822F480221A6037E03B
:1004B4009B4B5B6813F4803FE7D0994B1B6813F4A4
:1004C400003F03D06368002B00F0AE81236813F073
:1004D400020F76D0924B5B6813F00C0F5FD0904BF9
:1004E4005B6803F00C03082B54D02369002B00F045
:1004F4008A808C4B01221A60FFF786FF0546884BE1
:100504001B6813F0020F75D1FFF77EFF401B022812
:10051400F5D903208BE1824A136843F480331360D6
:10052400636843B3FFF770FF05467D4B1B6813F404
:10053400003FCBD1FFF768FF401B6428F5D90320A7
:1005440075E1B3F5A02F09D0754B1A6822F48032F7
:100554001A601A6822F480221A60E1E703F18043EA
:10056400A3F53C331A6842F480221A601A6842F4F4
:1005740080321A60D4E7FFF747FF0546684B1B68D3
:1005840013F4003FA2D0FFF73FFF401B6428F5D9C6
:1005940003204CE1624B5B6813F4803FA5D1604BB0
:1005A4001B6813F0020F04D02369012B01D0012032
:1005B4003DE15B4A136823F0F803616943EAC10330
:1005C4001360236813F0080F32D0A369002B5BD0AB
:1005D400554B01221A60FFF717FF0546504B5B6A23
:1005E40013F0020F21D1FFF70FFF401B0228F5D9AA
:1005F40003201CE14A4A136823F0F803616943EAC3
:10060400C1031360DDE7474B00221A60FFF7FCFECD
:100614000546434B1B6813F0020FD2D0FFF7F4FEDC
:10062400401B0228F5D9032001E10120FFF704FF54
:10063400236813F0040F00F09780394BDB6913F043
:10064400805F33D1364BDA6942F08052DA61DB697C
:1006540003F080530193019B0125344B1B6813F471
:10066400807F25D0E368012B36D0002B4CD103F1D9
:10067400804303F504331A6A22F001021A621A6AEB
:1006840022F004021A622CE0274B00221A60FFF7C2
:10069400BBFE0546224B5B6A13F0020FC8D0FFF77E
:1006A400B3FE401B0228F5D90320C0E00025D4E79F
:1006B4001E4A136843F480731360FFF7A5FE0646D1
:1006C4001A4B1B6813F4807FCCD1FFF79DFE801B6F
:1006D4006428F5D90320AAE0114A136A43F0010300
:1006E4001362E36873B3FFF78FFE06460C4B1B6A75
:1006F40013F0020F37D1FFF787FE801B41F28833D6
:100704009842F3D9032092E0052B11D0044B1A6AC6
:1007140022F001021A621A6A22F004021A62E0E765
:100724000010024000004242800442420070004037
:10073400414B1A6A42F004021A621A6A42F0010238
:100744001A62CEE7FFF760FE06463B4B1B6A13F0C6
:10075400020F08D0FFF758FE801B41F288339842FD
:10076400F3D9032063E0E5B9E369002B5ED0324A94
:10077400526802F00C02082A5BD0022B17D02F4BD0
:1007840000221A60FFF740FE04462B4B1B6813F04F
:10079400007F47D0FFF738FE001B0228F5D903205D
:1007A40045E0254AD36923F08053D361DCE7234B2A
:1007B40000221A60FFF728FE05461F4B1B6813F042
:1007C400007F06D0FFF720FE401B0228F5D9032046
:1007D4002DE0236AB3F5803F1AD017494B6823F400
:1007E4007413226A606A024313434B60134B012261
:1007F4001A60FFF709FE04460F4B1B6813F0007FD5
:100804000ED1FFF701FE001B0228F5D903200EE0EC
:10081400094A536823F40033A1680B435360DCE7AF
:10082400002004E0002002E0012000E0002002B0EB
:1008340070BD0120FBE700BF00100240600042428F
:1008440010B487B0164C94E80F000DF1180C0CE9A5
:100854000F00238AADF80430124B5B6803F00C02DE
:10086400082A1AD1C3F38342624412F8100C13F419
:10087400803F05D10C4B03FB00F007B010BC704760
:10088400084B5B68C3F34043634413F8142C074BD1
:10089400B3FBF2F300FB03F0EFE70448EDE700BF1E
:1008A400901000080010024000093D0000127A0078
:1008B400594B1B6803F007038B420CD2564A13684A
:1008C40023F007030B431360136803F007038B4201
:1008D40001D00120704770B5036813F0020F06D0F1
:1008E4004E4A536823F0F0038468234353600C4654
:1008F4000546036813F0010F52D04368012B23D03F
:10090400022B28D0454A126812F0020F00F08280B0
:1009140042494A6822F0030213434B60FFF774FD17
:1009240006466B68012B1DD0022B2AD03B4B5B681B
:1009340013F00C0F34D0FFF767FD801B41F28833AE
:100944009842F3D9032064E0344A126812F4003F59
:10095400DED101205DE0314A126812F0007FD7D168
:10096400012056E02D4B5B6803F00C03042B17D0D9
:10097400FFF74AFD801B41F288339842F2D90320E5
:1009840047E0264B5B6803F00C03082B08D0FFF705
:100994003BFD801B41F288339842F2D9032038E0B2
:1009A4001D4B1B6803F00703A3420CD91A4A1368B2
:1009B40023F0070323431360136803F00703A342E0
:1009C40001D0012025E02B6813F0040F06D0134A50
:1009D400536823F4E063E9680B4353602B6813F016
:1009E400080F07D00D4A536823F46053296943EA7A
:1009F400C1035360FFF724FF084B5B68C3F3031381
:100A0400074AD35CD840074B18600020FFF7CCFCA2
:100A1400002070BD0120FCE70020024000100240CD
:100A2400B010000800000020014B1868704700BF98
:100A34000000002008B5FFF7F7FF044B5B68C3F321
:100A44000223034AD35CD84008BD00BF0010024013
:100A5400C010000808B5FFF7E7FF044B5B68C3F359
:100A6400C223034AD35CD84008BD00BF0010024033
:100A7400C0100008F0B482B000263546ABE0002C6C
:100A840063D0012C00D1CE68FF2B72D88446FF2B93
:100A940072D8AC00DCF800200F27A74022EA070236
:100AA40006FA04F42243CCF800204A6812F0805F6E
:100AB40000F09080654A946944F00104946192695D
:100AC40002F001020192019AAC08A71C604A52F894
:100AD40027C005F0030297000F22BA402CEA020C4B
:100AE4005C4A90424ED002F58062904200F08B80C6
:100AF40002F58062904200F0888002F580629042A4
:100B040000F0858002F58062904200F0828002F558
:100B14008062904234D0062235E04F4FBC4214D05C
:100B24000BD94E4FBC4210D007F58037BC420CD0D5
:100B3400A7F58017BC42A7D107E0A7F58017BC42F0
:100B440003D007F58037BC429ED18C687CB1012C60
:100B540008D04261082697E7CE68083694E7CE6845
:100B64000C3691E7026108268EE700268CE70426FE
:100B74008AE700F1040C8AE7A5F10804A40089E7D8
:100B8400052200E00022BA4042EA0C020234304F4F
:100B940047F824204A6812F4803F3CD0304C226845
:100BA4001A4322604A6812F4003F3AD02C4C62681F
:100BB4001A4362604A6812F4801F38D0284CA26835
:100BC4001A43A2604A6812F4001F36D0244CE2682B
:100BD4001343E36001350F2D35D80122AA400B6879
:100BE40013409A42F6D14C68122CB8D095D8022CF6
:100BF400B2D07FF644AF032CB7D0112C7FF444AFAE
:100C0400CE68043640E70122BDE70222BBE7032297
:100C1400B9E70422B7E7124C226822EA03022260F1
:100C2400C0E70F4C626822EA03026260C2E70C4C20
:100C3400A26822EA0302A260C4E7094CE26822EA3D
:100C44000303E360C6E702B0F0BC70470010024043
:100C54000000014000080140000021100000311094
:100C640000040140074AD36823F4E0631B041B0C0F
:100C7400000200F4E060184340F0BF6040F400302C
:100C8400D060704700ED00E030B4174BDB68C3F36D
:100C94000223C3F10704042C28BF04241D1D062DC0
:100CA40018D9033B4FF0FF3505FA04F421EA040197
:100CB400994005FA03F322EA0303194300280BDBE6
:100CC4000901C9B200F1604000F5614080F80013E9
:100CD40030BC70470023E5E700F00F000901C9B2FA
:100CE400024B1954F4E700BF00ED00E014ED00E0FE
:100CF4000138B0F1807F0AD2064B5860064AF021D1
:100D040082F823100020986007221A60704701209F
:100D1400704700BF10E000E000ED00E0042805D0BB
:100D2400054A136823F0040313607047024A1368EA
:100D340043F004031360704710E000E0704708B507
:100D4400FFF7FCFF08BD0000F8B504460268D3684D
:100D540023F00C03D36001680B6923F47C5382698C
:100D6400C0690243206A0243E0680243134343F428
:100D740000630B612168CB6823F4B05323F00C03A8
:100D8400A26820690243606902431343CB6022686E
:100D9400536923F4407353612268344B9A4232D02E
:100DA400FFF748FE00EB800000EB800065686D00F3
:100DB400B0FBF5F52E4EA6FB05356D092D01FFF7A9
:100DC40039FE00EB800000EB800063685B00B0FB41
:100DD400F3F7FFF72FFE00EB800000EB8000636861
:100DE4005B00B0FBF3F3A6FB03235B09642000FB69
:100DF40013731B013233A6FB0323C3F3431322688B
:100E04002B439360F8BDFFF725FE00EB800000EB59
:100E1400800065686D00B0FBF5F5154EA6FB053541
:100E24006D092D01FFF716FE00EB800000EB80003A
:100E340063685B00B0FBF3F7FFF70CFE00EB800088
:100E440000EB800063685B00B0FBF3F3A6FB0323B5
:100E54005B09642000FB13731B013233A6FB0323DD
:100E6400C3F3431322682B439360CBE7003801405C
:100E74001F85EB51704720B310B5044690F83D3000
:100E8400D3B1022384F83D302046FFF75DFF22688A
:100E9400136923F4804313612268536923F02A03FE
:100EA40053612268D36843F40053D3600020206464
:100EB400012384F83D3010BD80F83C30FFF7DAFFA1
:100EC400DFE70120704700000F4B1A6842F001026F
:100ED4001A6059680D4A0A405A601A6822F08472EE
:100EE40022F480321A601A6822F480221A605A6846
:100EF40022F4FE025A604FF41F029A60044B4FF032
:100F040000629A60704700BF001002400000FFF8C2
:100F140000ED00E030B587B00B4B9A6942F008024F
:100F24009A619B6903F008030193019B01240294D5
:100F34000394002304930594044D02A92846FFF763
:100F440099FD2C6107B030BD00100240000C014037
:100F540030B599B01F4CA36943F00803A361A3699A
:100F640003F008030093009B802314930025159538
:100F740016950323179314A91748FFF77BFDA3695C
:100F840043F48043A361A36903F480430193019B69
:100F9400A36943F00103A361A36903F0010302936E
:100FA400029B0E4A536843F004035360A4F558446B
:100FB40003944FF4E13304930595069507950423B0
:100FC400089303A8FFF757FFE36843F48043E36003
:100FD40019B030BD00100240000C01400000014077
:100FE400002103E00B4B5B58435004310A480B4B80
:100FF40042189A42F6D30A4A02E0002342F8043B1C
:10100400084B9A42F9D3FFF75FFF00F00FF8FFF7A0
:101014005BF97047D0100008000000200400002095
:101024000400002028000020FEE7000070B5002521
:101034000C4E0D4CA41BA410A54209D100F01AF8C3
:1010440000250A4E0A4CA41BA410A54205D170BD6C
:1010540056F8253098470135EEE756F8253098477D
:101064000135F2E7C8100008C8100008C8100008CD
:10107400CC100008F8B500BFF8BC08BC9E46704709
:0C108400F8B500BFF8BC08BC9E467047E1
:1010900002030405060708090A0B0C0D0E0F1010B9
:1010A000010200005372632F6D61696E2E630000B0
:1010B0000000000000000000010203040607080908
:0810C00000000000010203041E
:0410C8000902000811
:0410CC00E501000832
:0410D00000A24A042C
:0400000508000FE5FB
:00000001FF
