:020000040800F2
:1000000000C00020951800083D04000841040008C5
:1000100045040008490400084D04000800000000E1
:100020000000000000000000000000005104000873
:100030005504000800000000590400085D04000891
:10004000DD180008DD180008DD180008DD180008BC
:10005000DD180008DD180008DD180008DD180008AC
:10006000DD180008DD180008DD180008DD1800089C
:10007000DD180008DD180008DD180008DD1800088C
:10008000DD180008DD180008DD180008DD1800087C
:10009000DD180008DD180008DD180008DD1800086C
:1000A000DD180008DD180008DD180008DD1800085C
:1000B000DD180008DD180008DD180008DD1800084C
:1000C000DD180008DD180008DD180008DD1800083C
:1000D0006D040008DD180008DD180008DD180008B0
:1000E000DD180008DD180008DD180008DD1800081C
:1000F000DD180008DD180008DD180008DD1800080C
:10010000DD180008DD180008DD180008DD180008FB
:10011000DD180008DD180008DD180008DD180008EB
:10012000DD180008DD180008DD180008DD180008DB
:1001300000000000000000000000000000000000BF
:1001400000000000000000000000000000000000AF
:10015000000000000000000000000000000000009F
:10016000000000000000000000000000000000008F
:10017000000000000000000000000000000000007F
:10018000000000000000000000000000000000006F
:10019000000000000000000000000000000000005F
:1001A000000000000000000000000000000000004F
:1001B000000000000000000000000000000000003F
:1001C000000000000000000000000000000000002F
:1001D000000000000000000000000000000000001F
:0401E0005FF8E0F1F3
:1001E40010B5054C237833B9044B13B10448AFF36D
:1001F40000800123237010BD0400002000000000D3
:100204002819000808B5034B1BB103490348AFF391
:10021400008008BD00000000080000202819000824
:1002240030B501224FF48033002502244FF4E0114D
:1002340091B006A806920A9207930E9308950D941E
:100244000F9100F0A9FC00B1FEE703464FF4806271
:100254000F25214601A8CDE9024305930195049297
:1002640000F082FE044600B1FEE700F053FF4FF4B5
:100274007A73B0FBF3F001F07DF9042001F092F9F8
:10028400224621464FF0FF3001F032F911B030BD63
:1002940080B5042788B000F05FFCFFF7C1FF5A4B1C
:1002A400012298690C2140F0100098619C6957481C
:1002B40004F010040094009C00249D69164645F047
:1002C40020059D619D6905F020050195019D9D69AD
:1002D4003D439D619D693D400295029D9D6945F0A8
:1002E40008059D619B69032503F008030393039BA1
:1002F40001F048F822464FF47071454801F042F885
:100304004DF6334304A94148CDE90434069400F082
:1003140027FF04A93D48CDE904760694079500F02B
:100324001FFF0822112304A93848CDE90423CDE98D
:10033400064500F015FF4FF4004304A93548049323
:10034400CDE9054400F00CFF04A93348CDE9047459
:10035400069400F005FF382304A92D480493CDE941
:10036400054400F0FDFE4FF470720223284804A9EE
:1003740004920793CDE9056400F0F2FE0A22274BAC
:10038400274F1846C3E90144C3E90344C3E90544BC
:10039400C3E90744C3E90944DA621F6000F0A4FA20
:1003A40000B1FEE702464FF4E1300C211D4B1E4C18
:1003B40058601846C3E902221A61C3E906221C6088
:1003C400596100F0CFFA024600B1FEE7014624204D
:1003D40001F08EF8242001F0C1F83B68134E43F07D
:1003E40040033B607B68124D43F04003114C7B603B
:1003F400002001F011F93080022001F00DF928806D
:1004040001F03EFA2080F3E70010024000100140A2
:10041400000C0140000801400014014028000020A5
:10042400003800408000002000480040C000002048
:100434005C010020C2000020704700BFFEE700BF3F
:10044400FEE700BFFEE700BFFEE700BF704700BF46
:10045400704700BF704700BF08B500F08FFBBDE8D0
:10046400084001F0ADB800BF804A38B5D368804871
:10047400AA2B54D07F4C23785A1E022A5DD87B4A7B
:100484007D4DD168EA1802F8011C0278012A51D086
:100494007A4800F0AFF92B78012B34D0022B26D008
:1004A400112B67D0122B73D0132B59D0142B00F0BF
:1004B4008980152B00F09080162B78D0172B00F034
:1004C4009680182B00F09E80212B00F0A680222B12
:1004D40000F0AE80312B09D12378042B00F0BF80CB
:1004E400052B03D1664A614B1278DA6038BD6A780D
:1004F400AB78002143EA02231BB2002B614A2BDBB9
:100504005363916338BD6A78AB78002143EA0223D0
:100514001BB2002B5B4A37DBD363116438BD03780D
:10052400002BA7D10121534C01702370D268552AA6
:1005340038D0514D01332370AAE7042B04D1002194
:100544004A4A4D4DD160A0E7052BF8D0474AD268FE
:10055400552A27D0484D98E75B425163936338BDD1
:100564006978AB78484A43EA01231BB203F2DC53AF
:10057400936338BD6978AB78434A43EA01231BB2DD
:1005840003F2DC53136438BD5B42D163136438BD9A
:100594006978AB783C4A43EA01231BB203F2DC538B
:1005A400D36338BD0023344D2370037070E74FF0DC
:1005B40080426978AB7843EA01231BB203F2DC532F
:1005C400D36338BD6978AB782F4A43EA01231BB261
:1005D40003F2DC53536338BD4FF080426978AB7843
:1005E40043EA01231BB203F2DC53136438BD4FF01A
:1005F40080426978AB7843EA01231BB203F2DC53EF
:10060400936338BD4FF080426978AB7843EA0123A5
:100614001BB203F2DC53536338BD2378042B12D08E
:10062400052B7FF463AF194A104B1278DA6038BD9A
:100634002378042B0DD0052B7FF458AF144A0B4BB1
:100644001278DA6038BD114B084A1B881B0AD36044
:1006540038BD0F4B054A1B881B0AD36038BD084BB5
:10066400024A1B881B0AD36038BD00BF0038004013
:100674002600002025000020200000202800002063
:10068400C2000020002C014000040040C0000020F3
:100694005C010020264B00B59A6983B042F0010248
:1006A4009A619A69032002F001020092009ADA69C1
:1006B40042F08052DA61DB6903F080530193019BBD
:1006C40000F004FF00226FF00B00114600F010FF51
:1006D40000226FF00A00114600F00AFF00226FF0BA
:1006E4000900114600F004FF00226FF004001146D7
:1006F40000F0FEFE00226FF00300114600F0F8FE49
:1007040000226FF00100114600F0F2FE00224FF0CB
:10071400FF30114600F0ECFE064B5A6822F0E0620E
:100724005A605A6842F000725A6003B05DF804FBE4
:1007340000100240000001400268144B9A4200D0AD
:1007440070474FF4304010B5002403F5EC33DA69F8
:1007540086B042F48042DA61DB6902A903F4804383
:10076400029001930A48019BCDE9034400F0F8FC90
:100774004FF480440222032302A90548CDE9024232
:10078400059300F0EDFC06B010BD00BF003800403A
:10079400000C01400268144B9A4200D070474FF499
:1007A400806130B50225032403F5E433DA6987B0A8
:1007B40042F48022DA61DB690C4803F4802302915D
:1007C400019302A9019B0395059400F0C9FC002341
:1007D4004FF4006202A90548CDE90223049300F016
:1007E400BFFC07B030BD00BF00480040000C014012
:1007F400704700BF026830B55568916885B001F054
:100804004104012C034654D08C0707D5280605D58E
:1008140018465A6C05B0BDE83040104711F0600F1F
:1008240045D0AC0643D548060ED593F851000328AD
:1008340046D00024586D40F0040058650194D068F7
:10084400019090680190019889060CD50020596D9B
:1008540041F001015965039091680391116821F0F9
:10086400400111600399596D09B31C460121536875
:1008740023F0E0035360AB0784F8511014D053689D
:10088400E16C23F00303536021B1114B08464B6321
:1008940000F07CFDA36C53B118460D4A5A6305B0B1
:1008A400BDE8304000F072BD2046FFF7A1FF05B05F
:1008B40030BD6C06A8D5036C05B0BDE830401847C0
:1008C40000230293D368029393680293029BEEE79A
:1008D400D9080008002208B5436ADA871846DA8680
:1008E400FFF786FF08BD00BF002839D0F8B5002304
:1008F40090F851200446836272B31A46D4E9013653
:10090400022700210125E068334326690343606917
:100914003343E66903433343206AA66984F851707C
:100924000343276806F40070034313433A68606A7C
:1009340022F04002360C3A6006F004063B60E36A9B
:1009440006437E603B61FB69084623F40063FB6158
:10095400616584F85150F8BDFFF7EEFEA26ACDE759
:1009640001207047002800F09C802DE9F84390F89E
:100974003930044603F0FF02002B00F08D8024225E
:10098400236884F83920DA68E06822F40052DA60D7
:100994001969A26821F4405101431961D968D4E965
:1009A400045021F4B0512A4321F00C0102430A43BC
:1009B400DA605A69A0695B4922F4407202438B42AF
:1009C4005A6170D000F0ACFB636800EB800000EB70
:1009D40080009B00B0FBF3F3534F4FF06408A7FB78
:1009E40003235B091D0100F09BFB666800EB80009C
:1009F40000EB8000B600B0FBF6F600F091FB6268F5
:100A040000EB8000930000EB8000B0FBF3F3A7FB46
:100A140003235B0908FB13631B013233A7FB032386
:100A24005B0903F0F00600F07BFB626800EB8000DA
:100A340000EB80009300B0FBF3F900F071FB6268F7
:100A440000EB8000930000EB8000B0FBF3F3A7FB06
:100A540003235B0908FB13931B013233A7FB032316
:100A6400C3F3431333432B44202100252268284633
:100A74009360136923F490431361536923F02A03A9
:100A84005361D36843F40053D360E56384F83910A9
:100A940084F83A10BDE8F88380F83820FFF77AFE2E
:100AA4006DE70120704700F04BFB636800EB8000AA
:100AB40000EB80009B00B0FBF3F31B4F4FF0640886
:100AC400A7FB03235B091D0100F03AFB666800EBFA
:100AD400800000EB8000B600B0FBF6F600F030FBBF
:100AE400626800EB8000930000EB8000B0FBF3F33E
:100AF400A7FB03235B0908FB13631B013233A7FB2A
:100B040003235B0903F0F00600F01AFB626800EBB4
:100B14008000930000EB8000B0FBF3F900F010FBC1
:100B24008DE700BF003801401F85EB5110B5044626
:100B3400074A084B1068A3FB0030800900F01AFD37
:100B4400214600224FF0FF3000F0D2FC002010BDFF
:100B540000000020D34D6210074A08B51368032033
:100B640043F01003136000F0B1FC0020FFF7DEFF38
:100B7400FFF790FD002008BD00200240024A1368E0
:100B840001331360704700BFA0010020014B1868B7
:100B9400704700BFA00100202DE9F041036882B036
:100BA400DD07044630D5AB494A6802F00C02042A3A
:100BB40000F0DA804A6802F00C02082A00F0D080C3
:100BC4006368B3F5803F00F00F81002B00F02781AC
:100BD400B3F5A02F00F0B5819E4B1A6822F4803241
:100BE4001A601A6822F480221A60FFF7CFFF994D29
:100BF400064605E0FFF7CAFF801B642800F20B815C
:100C04002B689A03F6D523689F0728D5914A516823
:100C140011F00C0F00F0B680516801F00C010829A6
:100C240000F0AC802369002B00F0418101228A4B43
:100C3400884D1A60FFF7AAFF064605E0FFF7A6FFF6
:100C4400801B022800F2E7802B689807F6D52B68F2
:100C5400626923F0F80343EAC2032B6023681A078E
:100C640022D5A369002B00F0988001227B4B794D9B
:100C74001A60FFF78BFF064605E0FFF787FF801B2E
:100C8400022800F2C8806B6A9B07F6D5744B754A3C
:100C94001B68A2FB03235B0A019300BF019B5A1E3E
:100CA4000192002BF9D123685D0739D5694BDA69C4
:100CB400D00040F1828000256B4B1A68D10540F1C9
:100CC4009980E368012B0FD0002B00F0D180052B15
:100CD400604B1A6A00F0FC8022F001021A621A6A60
:100CE40022F004021A6204E05A4A136A43F0010330
:100CF4001362FFF74BFF574E804641F2883706E0F8
:100D0400FFF744FFA0EB0800B84200F28480336A86
:100D14009B07F5D525B14F4AD36923F08053D3619E
:100D2400E269CAB14B4D696801F00C01082930D061
:100D3400022A4FF000014D4A00F0D2801160FFF703
:100D440025FF2C46054604E0FFF720FF401B022840
:100D540061D823689B01F7D4002002B0BDE8F0817C
:100D64004A68D0037FF52CAF3A4A126891037FF5A5
:100D74004BAF6268002A7FF447AF0AE05268D6039B
:100D84003FF550AF334A1268950721D52269012AED
:100D94001ED0012002B0BDE8F081304A2D4D136011
:100DA400FFF7F4FE064604E0FFF7F0FE801B02287E
:100DB40031D86B6A9F07F7D475E7DA69012542F0E9
:100DC4008052DA61DB6903F080530093009B73E780
:100DD400204960690A6822F0F80242EAC0020A6007
:100DE4001A077FF561AF3CE71A4A136843F480336E
:100DF4001360FAE61A681E4642F480721A60FFF71E
:100E0400C5FE07463368DA053FF55BAFFFF7BEFE64
:100E1400C01B6428F6D9032002B0BDE8F08103F1B9
:100E2400804303F504331A681D4622F480321A60A5
:100E34001A6822F480221A60FFF7A8FE064604E02E
:100E4400FFF7A4FE801B6428E5D82B689B03F7D426
:100E5400D9E600BF00100240000042428004424232
:100E640000000020D34D6210007000406000424238
:100E740003F1804303F504331A6A1E4622F001028B
:100E84001A621A6A41F2883822F004021A62FFF7E1
:100E94007DFE074604E0FFF779FEC01B4045BAD843
:100EA400336A9807F7D4002D3FF43AAF33E72B4A5F
:100EB4002B4D1360FFF76AFE064604E0FFF766FE5B
:100EC400801B0228A7D82B689907F7D42368C6E6A5
:100ED40042F004021A621A6A42F001021A6208E736
:100EE4001160FFF753FE064604E0FFF74FFE801B38
:100EF400022890D82B689901F7D4226AB2F5803F72
:100F040005D16B68A16823F400330B436B600125A2
:100F1400134B606A5968024321F4741111480A435F
:100F24005A6005601C46FFF731FE054605E0FFF7F1
:100F34002DFE401B02283FF66EAF23689A01F6D5BA
:100F44000AE703F18043A3F53C331A6842F4802294
:100F54001A601A6842F480321A6046E6000042427F
:100F64000010024060004242634A136803F0070322
:100F74008B420BD2136823F007030B4313601368EF
:100F840003F007038B4201D0012070472DE9F041A3
:100F9400036886B09C0706D5584C8568626822F0C1
:100FA400F0022A436260DA0704460E4625D54268F9
:100FB400524B012A1B6800F09980022A00F09280AB
:100FC4009D072AD54D4D41F288386B6823F0030301
:100FD40013436B60FFF7DAFD63680746012B64D0A7
:100FE400022B06D16CE0FFF7D1FDC01B404500F297
:100FF40081806B6813F00C0FF5D13F4A136803F03E
:101004000703B3420DD9136823F007033343136076
:10101400136803F00703B34203D0012006B0BDE810
:10102400F0812368580706D53449E0684A6822F4F9
:10103400E06202434A60190707D5304A21695368C0
:1010440023F4605343EAC103536040F201222C4B62
:1010540006ACADF804200FCB04E90F0027494A6819
:1010640002F00C03082B10D0264B244A2648526861
:101074002649C2F30312825C0020D3400B60FFF7C1
:1010840055FD002006B0BDE8F081C2F3834323443C
:10109400D20313F8103C19D41D4A02FB03F3E4E70E
:1010A400FFF774FDC01B404524D86B6803F00C03A4
:1010B400042BF5D1A1E7FFF769FDC01B404519D802
:1010C4006B6803F00C03082BF5D196E74A680D49C9
:1010D400C2F34042224412F8142CB1FBF2F203FB97
:1010E40002F3C2E79F013FF56DAF96E79B033FF51F
:1010F40069AF92E7032091E700200240001002400C
:101104004019000800127A0050190008000000205D
:1011140000093D00014B1868704700BF0000002023
:10112400044B05495B68054AC3F30223CB5C106892
:10113400D8407047001002406019000800000020E9
:10114400044B05495B68054AC3F3C223CB5C1068B2
:10115400D8407047001002406019000800000020C9
:101164002DE9F04F4FF0000883B04446DFF8F8C192
:10117400764EDFF8F8E103E00134102C00F08480AF
:1011840001230A68A3401A409342F5D14D68122DF9
:1011940000F0A88000F28980022D00F09F807ED9A3
:1011A400032D00F09880112D02D1CB6803F10408BF
:1011B400FF2A6CD882460368A5004FF00F0909FA8C
:1011C40005FB23EA0B0308FA05F52B43CAF80030A4
:1011D400D1F804A01AF0805FCED05D4F24F003054F
:1011E400BB6905F1804543F00103BB61BB6905F5AB
:1011F400803503F00103019304F0030B019B4FEAD4
:101204008B0BAB6809FA0BF9604523EA090318D084
:1012140070456BD04F4FB84200F083804E4FB842B8
:1012240000F086804D4FB84200F089804C4FB842A0
:101234000CBF4FF005094FF0060909FA0BFB43EA0E
:101244000B03AB6033681AF4803F14BF134393431A
:10125400336073681AF4003F14BF134393437360FD
:10126400B3681AF4801F14BF13439343B360F36845
:101274001AF4001F04F1010414BF1A4323EA020202
:10128400102CF2607FF47CAF03B0BDE8F08F04F162
:101294008045083D4368AD0000F1040A8DE7ADB117
:1012A400012D85D1D1F80C8082E72E4FBD420DD09F
:1012B4002AD9DFF8BC904D4508D009F580394D4551
:1012C40004D0A9F580194D457FF472AF8D68A5B996
:1012D4004FF004086CE74FF0000869E7CB6803F1AE
:1012E400080865E7CB6803F10C0861E74FF00109D2
:1012F40009FA0BFB43EA0B03A3E7012D0CBF0361BF
:1013040043614FF0080853E7DFF868904D45DDD09E
:1013140009F580394D457FF44BAF8D68002DD7D04A
:10132400EBE74FF0020909FA0BFB43EA0B0388E7EA
:101334004FF0030909FA0BFB43EA0B0381E74FF073
:10134400040909FA0BFB43EA0B037AE700040140A2
:101354000010024000100140001401400018014038
:10136400001C01400000211000080140000C014055
:1013740000003110000011108368194214BF0120CD
:101384000020704702B909040161704790F82130C8
:1013940010B5022B04D0042201248263204610BD20
:1013A400036846491A688B4222F00E021A601A68D2
:1013B40022F001021A60424A24D9934255D01432D1
:1013C40093425CD01432934260D01432934250D092
:1013D400143293425FD01432934262D08B4266D06F
:1013E40002F56772934240D01432934247D01432CC
:1013F40093424BD01432934214BF4FF480334FF4D2
:10140400805333E0934222D01432934239D01432C1
:10141400934238D0143293422ED0143293423DD0AA
:101424001432934240D08B4244D002F56772934207
:101434000DD01432934224D01432934223D0143268
:10144400934214BF4FF480334FF4805300E00123E0
:101454001C4A536001220024436B80F8212080F849
:101464002040B3B19847204610BD0123164A53606B
:10147400F0E74FF48053F9E74FF48053E8E7102383
:10148400F4E71023E4E74FF48073E1E74FF480734B
:10149400ECE71C4682E74FF48033E7E74FF48033F0
:1014A400D6E74FF48013E1E74FF48013D0E74FF011
:1014B4008073DBE74FF08073CAE700BF800002400F
:1014C4000800024000000240000402404FF6FF0101
:1014D400064A0002D36800F4E0600B4043F0BF63A7
:1014E40043F400330343D360704700BF00ED00E0D2
:1014F400184B30B4DB68C3F30223C3F10705042D92
:1015040003F1040428BF0425062C19D94FF0FF3435
:10151400033B9C4022EA04044FF0FF32AA4021EA34
:10152400020101FA03F2224312010028D2B20ADBBB
:1015340000F1604000F5614080F8002330BC704742
:1015440000242346E8E7044B00F00F0003441A7616
:1015540030BC704700ED00E0FCEC00E0012300F03B
:101564001F01034A40098B4042F82030704700BFF6
:1015740000E100E00138B0F1807F0DD230B4F025F5
:1015840000220721054B064C586084F8235010466E
:1015940030BC9A60196070470120704710E000E089
:1015A40000ED00E0044A042813680CBF43F0040370
:1015B40023F004031360704710E000E0704700BF9D
:1015C40008B5FFF7FBFF08BD30B44FF41F054FF01B
:1015D40000640E4B0E4A19680E4841F0010119606F
:1015E40059680A405A601A6822F0847222F48032E0
:1015F4001A601A6822F480221A605A6822F4FE02E1
:101604005A609D60846030BC704700BF0010024087
:101614000000FFF800ED00E0012838B500F00F816C
:10162400C0F08B80022840F08680914D4FF48051A9
:101634002B69904843F400732B616B6943F4807306
:101644006B616B6943F080036B616B6943F040032A
:101654006B61FFF791FE4FF4006144008548FFF78A
:101664008BFEA4B204434FF480618248FFF784FEEA
:10167400A4B26400A4B204434FF400417E48FFF7CF
:101684007BFE6B69A4B243F400736B612B69640045
:1016940043F480732B616B69A4B243F080036B61E4
:1016A4006B69044343F04003202128466B61FFF734
:1016B40063FEA4B26400A4B2044310212846A4B279
:1016C4006400FFF759FEA4B2044308212846FFF73B
:1016D40053FEA4B26400A4B2044304216748FFF794
:1016E4004BFEA4B26400A4B204434FF48051614899
:1016F400FFF742FEA4B26400A4B204434FF40061B5
:101704005C48FFF739FEA4B26400A4B204434FF46A
:1017140080615848FFF730FEA4B26400A4B20443C9
:101724004FF400415448FFF727FEA4B26400A4B26A
:10173400204380B238BD002038BD4D4D20216B6957
:10174400284643F400736B616B6943F480736B61E7
:101754006B6943F080036B616B6943F040036B6119
:10176400FFF70AFE102144002846FFF705FEA4B245
:10177400044308212846FFF7FFFDA4B26400A4B285
:10178400044304213D48FFF7F7FDA4B26400A4B26A
:1017940004434FF480513748FFF7EEFDA4B26400D0
:1017A400A4B204434FF400613248FFF7E5FDA4B24C
:1017B4006400A4B204434FF480612E48FFF7DCFDBB
:1017C400A4B26400A4B204434FF400412A48FFF7D2
:1017D400D3FD2B69A4B243F400732B616B696400DD
:1017E40043F480736B616B69A4B243F080036B6153
:1017F4006B69044343F040036B6128462021FFF7E3
:10180400BBFDA4B26400A4B2044310212846FFF730
:10181400B3FDA4B26400A4B2044308212846FFF730
:10182400ABFDA4B26400A4B2044304211348FFF73F
:10183400A3FDA4B26400A4B2204380B238BD0C4D11
:1018440020212B69284643F400732B612B6943F450
:1018540080732B616B6943F080036B616B6943F0A8
:1018640040036B61FFF788FD10214400284628E7F8
:10187400000C014000100140000801400014014028
:1018840008B502210148FFF777FD08BD00100140AB
:10189400002103E00B4B5B58435004310A480B4BC7
:1018A40042189A42F6D30A4A02E0002342F8043B63
:1018B400084B9A42F9D3FFF787FE00F00FF8FEF7C2
:1018C400E7FC7047701900080000002004000020A5
:1018D40004000020A4010020FEE7000070B50025EC
:1018E4000C4E0D4CA41BA410A54209D100F01AF80B
:1018F40000250A4E0A4CA41BA410A54205D170BDB4
:1019040056F8253098470135EEE756F825309847C4
:101914000135F2E768190008681900086819000819
:101924006C190008F8B500BFF8BC08BC9E467047A7
:0C193400F8B500BFF8BC08BC9E46704728
:1019400002030405060708090A0B0C0D0E0F101000
:10195000000000000000000001020304060708095F
:08196000000000000102030475
:041968000902000868
:04196C00E501000889
:0419700000A24A0483
:040000050800189542
:00000001FF
