:020000040800F2
:1000000000C00020911700083D04000841040008CA
:1000100045040008490400084D04000800000000E1
:100020000000000000000000000000005104000873
:100030005504000800000000590400085D04000891
:10004000D9170008D9170008D9170008D9170008D0
:10005000D9170008D9170008D9170008D9170008C0
:10006000D9170008D9170008D9170008D9170008B0
:10007000D9170008D9170008D9170008D9170008A0
:10008000D9170008D9170008D9170008D917000890
:10009000D9170008D9170008D9170008D917000880
:1000A000D9170008D9170008D9170008D917000870
:1000B000D9170008D9170008D9170008D917000860
:1000C000D9170008D9170008D9170008D917000850
:1000D0006D040008D9170008D9170008D9170008BF
:1000E000D9170008D9170008D9170008D917000830
:1000F000D9170008D9170008D9170008D917000820
:10010000D9170008D9170008D9170008D91700080F
:10011000D9170008D9170008D9170008D9170008FF
:10012000D9170008D9170008D9170008D9170008EF
:1001300000000000000000000000000000000000BF
:1001400000000000000000000000000000000000AF
:10015000000000000000000000000000000000009F
:10016000000000000000000000000000000000008F
:10017000000000000000000000000000000000007F
:10018000000000000000000000000000000000006F
:10019000000000000000000000000000000000005F
:1001A000000000000000000000000000000000004F
:1001B000000000000000000000000000000000003F
:1001C000000000000000000000000000000000002F
:1001D000000000000000000000000000000000001F
:0401E0005FF8E0F1F3
:1001E40010B5054C237833B9044B13B10448AFF36D
:1001F40000800123237010BD0800002000000000CF
:100204002418000808B5034B1BB103490348AFF396
:10021400008008BD000000000C0000202418000825
:1002240030B501224FF48033002502244FF4E0114D
:1002340091B006A806920A9207930E9308950D941E
:100244000F9100F0C7FC00B1FEE703464FF4806253
:100254000F25214601A8CDE9024305930195049297
:1002640000F0A0FE044600B1FEE700F071FF4FF479
:100274007A73B0FBF3F001F0FBF8042001F010F9FD
:10028400224621464FF0FF3001F0B0F811B030BDE6
:1002940080B5042788B000F07DFCFFF7C1FF5A4BFE
:1002A400012298690C2140F0100098619C6957481C
:1002B40004F010040094009C00249D69164645F047
:1002C40020059D619D6905F020050195019D9D69AD
:1002D4003D439D619D693D400295029D9D6945F0A8
:1002E40008059D619B69032503F008030393039BA1
:1002F40001F066F822464FF47071454801F060F849
:100304004DF6334304A94148CDE90434069400F082
:1003140045FF04A93D48CDE904760694079500F00D
:100324003DFF0822112304A93848CDE90423CDE96F
:10033400064500F033FF4FF4004304A93548049305
:10034400CDE9054400F02AFF04A93348CDE904743B
:10035400069400F023FF382304A92D480493CDE923
:10036400054400F01BFF4FF470720223284804A9CF
:1003740004920793CDE9056400F010FF0A22274B8D
:10038400274F1846C3E90144C3E90344C3E90544BC
:10039400C3E90744C3E90944DA621F6000F0C2FA02
:1003A40000B1FEE702464FF4E1300C211D4B1E4C18
:1003B40058601846C3E902221A61C3E906221C6088
:1003C400596100F0EDFA024600B1FEE7014624202F
:1003D40001F00CF8242001F03FF83B68134E43F081
:1003E40040033B607B68124D43F04003114C7B603B
:1003F400002001F08FF83080022001F08BF8288073
:1004040001F0BCF92080F3E7001002400010014025
:10041400000C014000080140001401402C000020A1
:10042400003800408400002000480040C400002040
:1004340060010020C6000020704700BFFEE700BF37
:10044400FEE700BFFEE700BFFEE700BF704700BF46
:10045400704700BF704700BF08B500F0ADFBBDE8B2
:10046400084001F02BB800BFA04AA148D168F0B4FD
:10047400AA29037841D0012B50D09E4B9E4E1A7866
:1004840000255C780570294635709878DD78131955
:10049400563B0344212ADBB22DD0222A0DD002F090
:1004A400F006502E00F08980012902D10027934ED6
:1004B4003770AB420AD0F0BC7047914F3F88914EE1
:1004C4004FEA172C86F800C07770EDE7052A7FD035
:1004D400012A3FD0022A40F0CA800529EBD140EA24
:1004E400042000B200284FF00001874AC0F2D980EE
:1004F400506391637BE0854FE0E7002BBBD1012380
:1005040011257D4C037021787A4B0131C9B22170D9
:10051400D5601A785C789878DD78B8E7764E3178CB
:10052400012925D0734B02291A782FD0032938D0FA
:10053400042961D0052965D00629A1D107216B487A
:100544006E4CC5682478EDB2DD70C4605C78987830
:1005540031709CE70529AED140EA042000B200289E
:100564004FF00001684AC0F29880D06311643EE005
:100574000227112439465D485E4BC268D2B21A7014
:10058400C4605C789878DD78377080E70327574D2E
:100594003946EC68E4B25C70EA609878DD783770CC
:1005A40075E70421514C574DE0682D78C0B298701E
:1005B400E5605C78DD78317069E7A2F15106072EB9
:1005C4003FF672AFDFE806F04E49443F3A35302B30
:1005D40005297FF470AF40EA042000B200284FF0F0
:1005E4000001494A53DBD0631164506391630122D3
:1005F400424B1A70F0BC7047052742493B484C787F
:100604003946BDE706213F4C384D207864782044B4
:10061400C0B2E8605C789878DD78317037E74FF4E1
:100624000067384E37803FE74FF4E067354E378038
:100634003AE74FF4C067334E378035E74FF4A0678D
:10064400304E378030E74FF480672E4E37802BE7EB
:100654004FF440772B4E378026E74FF40077294E2E
:10066400378021E74FF48077264E37801CE7112A24
:100674001BD105297FF41FAF012140EA04231BB2DB
:1006840023481E4A03F2DC530364117013E7434208
:10069400D163136451639363A9E74342D163136441
:1006A400A5E7434251639363A1E7122A0DD10529BB
:1006B4007FF401AF012140EA04231BB214480F4A1E
:1006C40003F2DC53C3631170F5E6132A22D1052922
:1006D4007FF4F1AE012140EA04231BB20C48074A1F
:1006E40003F2DC5383631170E5E600BF0038004079
:1006F4002B00002024000020290000202A000020D4
:100704006001002000000020002C0140C4000020F3
:1007140000040040142A0DD105297FF4CCAE012138
:1007240040EA04231BB22648264A03F2DC534363FF
:100734001170C0E6152A0ED105297FF4BCAE4FF026
:100744008045012140EA04231BB21E4A03F2DC5314
:100754002B641170AFE6162A0ED105297FF4ABAED7
:100764004FF08045012140EA04231BB2154A03F2ED
:10077400DC53EB6311709EE6172A0ED105297FF432
:100784009AAE4FF08045012140EA04231BB20D4A82
:1007940003F2DC53AB6311708DE6182A7FF48BAE41
:1007A40005297FF488AE4FF08045012140EA0423F7
:1007B4001BB2044A03F2DC536B6311707BE600BF87
:1007C400000400402A000020264B00B59A6983B03B
:1007D40042F001029A619A69032002F00102009238
:1007E400009ADA6942F08052DA61DB6903F08053DF
:1007F4000193019B00F0E8FD00226FF00B0011460D
:1008040000F0F4FD00226FF00A00114600F0EEFD46
:1008140000226FF00900114600F0E8FD00226FF09D
:100824000400114600F0E2FD00226FF003001146BF
:1008340000F0DCFD00226FF00100114600F0D6FD4F
:1008440000224FF0FF30114600F0D0FD064B5A68ED
:1008540022F0E0625A605A6842F000725A6003B0B3
:100864005DF804FB00100240000001400268144BD4
:100874009A4200D070474FF4304010B5002403F57D
:10088400EC33DA6986B042F48042DA61DB6902A9AA
:1008940003F48043029001930A48019BCDE9034489
:1008A40000F07CFC4FF480440222032302A9054893
:1008B400CDE90242059300F071FC06B010BD00BF03
:1008C40000380040000C01400268144B9A4200D0EA
:1008D40070474FF4806130B50225032403F5E433F7
:1008E400DA6987B042F48022DA61DB690C4803F4E8
:1008F40080230291019302A9019B0395059400F0C2
:100904004DFC00234FF4006202A90548CDE90223FF
:10091400049300F043FC07B030BD00BF0048004022
:10092400000C0140002839D0F8B5002390F851207C
:100934000446836272B31A46D4E9013602270021C1
:100944000125E06833432669034360693343E6695C
:1009540003433343206AA66984F85170034327682C
:1009640006F40070034313433A68606A22F04002BD
:10097400360C3A6006F004063B60E36A06437E6088
:100984003B61FB69084623F40063FB61616584F8FD
:100994005150F8BDFFF76AFFA26ACDE70120704706
:1009A400002800F09C802DE9F84390F83930044683
:1009B40003F0FF02002B00F08D802422236884F8CA
:1009C4003920DA68E06822F40052DA601969A26812
:1009D40021F4405101431961D968D4E9045021F448
:1009E400B0512A4321F00C0102430A43DA605A69E8
:1009F400A0695B4922F4407202438B425A6170D071
:100A040000F0ACFB636800EB800000EB80009B000F
:100A1400B0FBF3F3534F4FF06408A7FB03235B09C8
:100A24001D0100F09BFB666800EB800000EB80007A
:100A3400B600B0FBF6F600F091FB626800EB8000B4
:100A4400930000EB8000B0FBF3F3A7FB03235B09E7
:100A540008FB13631B013233A7FB03235B0903F079
:100A6400F00600F07BFB626800EB800000EB800086
:100A74009300B0FBF3F900F071FB626800EB8000B7
:100A8400930000EB8000B0FBF3F3A7FB03235B09A7
:100A940008FB13931B013233A7FB0323C3F3431354
:100AA40033432B4420210025226828469360136990
:100AB40023F490431361536923F02A035361D368E9
:100AC40043F40053D360E56384F8391084F83A1092
:100AD400BDE8F88380F83820FFF7F6FE6DE70120C3
:100AE400704700F04BFB636800EB800000EB800074
:100AF4009B00B0FBF3F31B4F4FF06408A7FB0323E9
:100B04005B091D0100F03AFB666800EB800000EB16
:100B14008000B600B0FBF6F600F030FB626800EB34
:100B24008000930000EB8000B0FBF3F3A7FB0323EA
:100B34005B0908FB13631B013233A7FB03235B0927
:100B440003F0F00600F01AFB626800EB80009300EB
:100B540000EB8000B0FBF3F900F010FB8DE700BF61
:100B6400003801401F85EB5110B50446074A084B75
:100B74001068A3FB0030800900F07AFC21460022B3
:100B84004FF0FF3000F032FC002010BD04000020C4
:100B9400D34D6210074A08B51368032043F01003CD
:100BA400136000F011FC0020FFF7DEFFFFF70CFEDE
:100BB400002008BD00200240024A1368013313607C
:100BC400704700BFA4010020014B1868704700BFA4
:100BD400A40100202DE9F041036882B0DD0704463A
:100BE40030D5AB494A6802F00C02042A00F0DA80DE
:100BF4004A6802F00C02082A00F0D0806368B3F55A
:100C0400803F00F00F81002B00F02781B3F5A02F67
:100C140000F0B5819E4B1A6822F480321A601A687B
:100C240022F480221A60FFF7CFFF994D064605E0B3
:100C3400FFF7CAFF801B642800F20B812B689A031C
:100C4400F6D523689F0728D5914A516811F00C0FF7
:100C540000F0B680516801F00C01082900F0AC8066
:100C64002369002B00F0418101228A4B884D1A60D0
:100C7400FFF7AAFF064605E0FFF7A6FF801B022840
:100C840000F2E7802B689807F6D52B68626923F099
:100C9400F80343EAC2032B6023681A0722D5A36929
:100CA400002B00F0988001227B4B794D1A60FFF7EE
:100CB4008BFF064605E0FFF787FF801B022800F242
:100CC400C8806B6A9B07F6D5744B754A1B68A2FBF8
:100CD40003235B0A019300BF019B5A1E0192002B60
:100CE400F9D123685D0739D5694BDA69D00040F141
:100CF400828000256B4B1A68D10540F19980E36826
:100D0400012B0FD0002B00F0D180052B604B1A6A09
:100D140000F0FC8022F001021A621A6A22F0040236
:100D24001A6204E05A4A136A43F001031362FFF79C
:100D34004BFF574E804641F2883706E0FFF744FFE9
:100D4400A0EB0800B84200F28480336A9B07F5D513
:100D540025B14F4AD36923F08053D361E269CAB104
:100D64004B4D696801F00C01082930D0022A4FF07C
:100D740000014D4A00F0D2801160FFF725FF2C4698
:100D8400054604E0FFF720FF401B022861D82368D2
:100D94009B01F7D4002002B0BDE8F0814A68D0037B
:100DA4007FF52CAF3A4A126891037FF54BAF626826
:100DB400002A7FF447AF0AE05268D6033FF550AFEC
:100DC400334A1268950721D52269012A1ED00120D1
:100DD40002B0BDE8F081304A2D4D1360FFF7F4FEF8
:100DE400064604E0FFF7F0FE801B022831D86B6A48
:100DF4009F07F7D475E7DA69012542F08052DA617A
:100E0400DB6903F080530093009B73E7204960691A
:100E14000A6822F0F80242EAC0020A601A077FF563
:100E240061AF3CE71A4A136843F480331360FAE66F
:100E34001A681E4642F480721A60FFF7C5FE074620
:100E44003368DA053FF55BAFFFF7BEFEC01B6428CD
:100E5400F6D9032002B0BDE8F08103F1804303F525
:100E640004331A681D4622F480321A601A6822F488
:100E740080221A60FFF7A8FE064604E0FFF7A4FEEE
:100E8400801B6428E5D82B689B03F7D4D9E600BF00
:100E9400001002400000424280044242040000204C
:100EA400D34D6210007000406000424203F1804361
:100EB40003F504331A6A1E4622F001021A621A6A02
:100EC40041F2883822F004021A62FFF77DFE0746D9
:100ED40004E0FFF779FEC01B4045BAD8336A98078F
:100EE400F7D4002D3FF43AAF33E72B4A2B4D136070
:100EF400FFF76AFE064604E0FFF766FE801B022841
:100F0400A7D82B689907F7D42368C6E642F00402F1
:100F14001A621A6A42F001021A6208E71160FFF7C6
:100F240053FE064604E0FFF74FFE801B022890D8CC
:100F34002B689901F7D4226AB2F5803F05D16B681A
:100F4400A16823F400330B436B600125134B606AE3
:100F54005968024321F4741111480A435A60056028
:100F64001C46FFF731FE054605E0FFF72DFE401B4A
:100F740002283FF66EAF23689A01F6D50AE703F11B
:100F84008043A3F53C331A6842F480221A601A683D
:100F940042F480321A6046E60000424200100240E9
:100FA40060004242634A136803F007038B420BD28A
:100FB400136823F007030B431360136803F007035C
:100FC4008B4201D0012070472DE9F041036886B0BF
:100FD4009C0706D5584C8568626822F0F0022A43C3
:100FE4006260DA0704460E4625D54268524B012A50
:100FF4001B6800F09980022A00F092809D072AD590
:101004004D4D41F288386B6823F0030313436B6042
:10101400FFF7DAFD63680746012B64D0022B06D183
:101024006CE0FFF7D1FDC01B404500F281806B6886
:1010340013F00C0FF5D13F4A136803F00703B342D2
:101044000DD9136823F0070333431360136803F0C7
:101054000703B34203D0012006B0BDE8F081236842
:10106400580706D53449E0684A6822F4E06202432E
:101074004A60190707D5304A2169536823F460533D
:1010840043EAC103536040F201222C4B06ACADF895
:1010940004200FCB04E90F0027494A6802F00C032F
:1010A400082B10D0264B244A264852682649C2F3FE
:1010B4000312825C0020D3400B60FFF755FD002033
:1010C40006B0BDE8F081C2F383432344D20313F88E
:1010D400103C19D41D4A02FB03F3E4E7FFF774FD47
:1010E400C01B404524D86B6803F00C03042BF5D1D6
:1010F400A1E7FFF769FDC01B404519D86B6803F0F1
:101104000C03082BF5D196E74A680D49C2F3404217
:10111400224412F8142CB1FBF2F203FB02F3C2E7EF
:101124009F013FF56DAF96E79B033FF569AF92E7EB
:10113400032091E700200240001002403C18000800
:1011440000127A004C1800080400002000093D0039
:10115400014B1868704700BF04000020044B054988
:101164005B68054AC3F30223CB5C1068D840704720
:10117400001002405C18000804000020044B0549DC
:101184005B68054AC3F3C223CB5C1068D840704740
:10119400001002405C180008040000202DE9F04F04
:1011A4004FF0000883B04446DFF8F8C1764EDFF80C
:1011B400F8E103E00134102C00F0848001230A6874
:1011C400A3401A409342F5D14D68122D00F0A88037
:1011D40000F28980022D00F09F807ED9032D00F05B
:1011E4009880112D02D1CB6803F10408FF2A6CD832
:1011F40082460368A5004FF00F0909FA05FB23EAAC
:101204000B0308FA05F52B43CAF80030D1F804A003
:101214001AF0805FCED05D4F24F00305BB6905F161
:10122400804543F00103BB61BB6905F5803503F0DC
:101234000103019304F0030B019B4FEA8B0BAB6892
:1012440009FA0BF9604523EA090318D070456BD0FD
:101254004F4FB84200F083804E4FB84200F0868072
:101264004D4FB84200F089804C4FB8420CBF4FF04C
:1012740005094FF0060909FA0BFB43EA0B03AB60BF
:1012840033681AF4803F14BF134393433360736885
:101294001AF4003F14BF134393437360B3681AF402
:1012A400801F14BF13439343B360F3681AF4001F01
:1012B40004F1010414BF1A4323EA0202102CF26061
:1012C4007FF47CAF03B0BDE8F08F04F18045083DA6
:1012D4004368AD0000F1040A8DE7ADB1012D85D15D
:1012E400D1F80C8082E72E4FBD420DD02AD9DFF809
:1012F400BC904D4508D009F580394D4504D0A9F579
:1013040080194D457FF472AF8D68A5B94FF004087C
:101314006CE74FF0000869E7CB6803F1080865E75C
:10132400CB6803F10C0861E74FF0010909FA0BFBE4
:1013340043EA0B03A3E7012D0CBF036143614FF0A4
:10134400080853E7DFF868904D45DDD009F580398A
:101354004D457FF44BAF8D68002DD7D0EBE74FF0B0
:10136400020909FA0BFB43EA0B0388E74FF0030970
:1013740009FA0BFB43EA0B0381E74FF0040909FA6E
:101384000BFB43EA0B037AE7000401400010024020
:10139400001001400014014000180140001C0140ED
:1013A4000000211000080140000C01400000311031
:1013B400000011108368194214BF012000207047F7
:1013C40002B90904016170474FF6FF01064A0002A1
:1013D400D36800F4E0600B4043F0BF6343F4003390
:1013E4000343D360704700BF00ED00E0184B30B4F6
:1013F400DB68C3F30223C3F10705042D03F10404DE
:1014040028BF0425062C19D94FF0FF34033B9C4018
:1014140022EA04044FF0FF32AA4021EA020101FA51
:1014240003F2224312010028D2B20ADB00F1604029
:1014340000F5614080F8002330BC70470024234647
:10144400E8E7044B00F00F0003441A7630BC704701
:1014540000ED00E0FCEC00E0012300F01F01034A72
:1014640040098B4042F82030704700BF00E100E0A3
:101474000138B0F1807F0DD230B4F025002207216D
:10148400054B064C586084F82350104630BC9A60D3
:10149400196070470120704710E000E000ED00E0A3
:1014A400044A042813680CBF43F0040323F0040324
:1014B4001360704710E000E0704700BF08B5FFF705
:1014C400FBFF08BD30B44FF41F054FF000640E4B12
:1014D4000E4A19680E4841F00101196059680A4022
:1014E4005A601A6822F0847222F480321A601A68F0
:1014F40022F480221A605A6822F4FE025A609D6027
:10150400846030BC704700BF001002400000FFF848
:1015140000ED00E0012838B500F00F81C0F08B80A9
:10152400022840F08680914D4FF480512B699048F9
:1015340043F400732B616B6943F480736B616B69D3
:1015440043F080036B616B6943F040036B61FFF709
:1015540031FF4FF4006144008548FFF72BFFA4B22C
:1015640004434FF480618248FFF724FFA4B264006F
:10157400A4B204434FF400417E48FFF71BFF6B699C
:10158400A4B243F400736B612B69640043F4807369
:101594002B616B69A4B243F080036B616B690443F4
:1015A40043F04003202128466B61FFF703FFA4B2F8
:1015B4006400A4B2044310212846A4B26400FFF7D7
:1015C400F9FEA4B2044308212846FFF7F3FEA4B2AF
:1015D4006400A4B2044304216748FFF7EBFEA4B2FD
:1015E4006400A4B204434FF480516148FFF7E2FE63
:1015F400A4B26400A4B204434FF400615C48FFF752
:10160400D9FEA4B26400A4B204434FF480615848E4
:10161400FFF7D0FEA4B26400A4B204434FF4004127
:101624005448FFF7C7FEA4B26400A4B2204380B2BA
:1016340038BD002038BD4D4D20216B69284643F448
:1016440000736B616B6943F480736B616B6943F086
:1016540080036B616B6943F040036B61FFF7AAFE83
:10166400102144002846FFF7A5FEA4B20443082134
:101674002846FFF79FFEA4B26400A4B204430421E9
:101684003D48FFF797FEA4B26400A4B204434FF4AC
:1016940080513748FFF78EFEA4B26400A4B204431D
:1016A4004FF400613248FFF785FEA4B26400A4B28F
:1016B40004434FF480612E48FFF77CFEA4B264001B
:1016C400A4B204434FF400412A48FFF773FE2B6988
:1016D400A4B243F400732B616B69640043F4807318
:1016E4006B616B69A4B243F080036B616B69044363
:1016F40043F040036B6128462021FFF75BFEA4B250
:101704006400A4B2044310212846FFF753FEA4B298
:101714006400A4B2044308212846FFF74BFEA4B298
:101724006400A4B2044304211348FFF743FEA4B2A7
:101734006400A4B2204380B238BD0C4D20212B6933
:10174400284643F400732B612B6943F480732B61A7
:101754006B6943F080036B616B6943F040036B6119
:10176400FFF728FE10214400284628E7000C01401A
:1017740000100140000801400014014008B5022196
:101784000148FFF717FE08BD00100140002103E0E7
:101794000B4B5B58435004310A480B4B42189A4296
:1017A400F6D30A4A02E0002342F8043B084B9A426B
:1017B400F9D3FFF787FE00F00FF8FEF769FD7047D5
:1017C4006C18000800000020080000200800002019
:1017D400A8010020FEE7000070B500250C4E0D4C5A
:1017E400A41BA410A54209D100F01AF800250A4E42
:1017F4000A4CA41BA410A54205D170BD56F825308F
:1018040098470135EEE756F8253098470135F2E759
:1018140064180008641800086418000868180008B0
:10182400F8B500BFF8BC08BC9E467047F8B500BFC9
:08183400F8BC08BC9E46704799
:10183C0002030405060708090A0B0C0D0E0F101005
:10184C000000000000000000010203040607080964
:08185C0000000000010203047A
:04186400090200086D
:04186800E50100088E
:08186C000102000000A24A0481
:040000050800179147
:00000001FF
