:020000040800F2
:1000000000C00020450B0008ED020008EF020008C8
:10001000F1020008F3020008F502000800000000E9
:10002000000000000000000000000000F7020008CF
:10003000F902000800000000FB020008FD020008B1
:100040008D0B00088D0B00088D0B00088D0B000830
:100050008D0B00088D0B00088D0B00088D0B000820
:100060008D0B00088D0B00088D0B00088D0B000810
:100070008D0B00088D0B00088D0B00088D0B000800
:100080008D0B00088D0B00088D0B00088D0B0008F0
:100090008D0B00088D0B00088D0B00088D0B0008E0
:1000A0008D0B00088D0B00088D0B00088D0B0008D0
:1000B0008D0B00088D0B00088D0B00088D0B0008C0
:1000C0008D0B00088D0B00088D0B00088D0B0008B0
:1000D0008D0B00088D0B00088D0B00088D0B0008A0
:1000E0008D0B00088D0B00088D0B00088D0B000890
:1000F0008D0B00088D0B00088D0B00088D0B000880
:100100008D0B00088D0B00088D0B00088D0B00086F
:100110008D0B00088D0B00088D0B00088D0B00085F
:100120008D0B00088D0B00088D0B00088D0B00084F
:1001300000000000000000000000000000000000BF
:1001400000000000000000000000000000000000AF
:10015000000000000000000000000000000000009F
:10016000000000000000000000000000000000008F
:10017000000000000000000000000000000000007F
:10018000000000000000000000000000000000006F
:10019000000000000000000000000000000000005F
:1001A000000000000000000000000000000000004F
:1001B000000000000000000000000000000000003F
:1001C000000000000000000000000000000000002F
:1001D000000000000000000000000000000000001F
:0401E0005FF8E0F1F3
:1001E40010B5054C237833B9044B13B10448AFF36D
:1001F40000800123237010BD0400002000000000D3
:10020400D80B000808B5034B1BB103490348AFF3EF
:10021400008008BD0000000008000020D80B000882
:1002240082B00A4B9A6942F020029A619A6902F0FC
:1002340020020092009A9A6942F004029A619B6932
:1002440003F004030193019B02B0704700100240C5
:10025400FEE7000000B591B0012206924FF480330E
:100264000793002108910A9202220D920E934FF4F3
:10027400E0130F9306A800F0E3F808BB0F230193E3
:1002840002210291002303934FF4806204920593A8
:1002940001A800F0FBFAB8B900F0B4FB0C4BA3FBC7
:1002A4000030800900F0FAFB042000F00DFC00226D
:1002B40011464FF0FF3000F0BDFB11B05DF804FBB8
:1002C40087210448FFF7C4FF95210248FFF7C0FFC8
:1002D400D34D6210040C000808B500F07BF8FFF75A
:1002E400B9FFFFF79DFFFEE77047FEE7FEE7FEE775
:1002F400FEE770477047704708B500F07DF800F0DE
:10030400F4FB08BD00B583B0254B9A6942F00102A5
:100314009A619A6902F001020092009ADA6942F045
:100324008052DA61DB6903F080530193019B03205F
:1003340000F06EFB002211466FF00B0000F07AFB18
:10034400002211466FF00A0000F074FB00221146EF
:100354006FF0090000F06EFB002211466FF00400FC
:1003640000F068FB002211466FF0030000F062FB0E
:10037400002211466FF0010000F05CFB00221146E0
:100384004FF0FF3000F056FB064B5A6822F0E06253
:100394005A605A6842F000725A6003B05DF804FB78
:1003A400001002400000014010B50446074B1868D5
:1003B400074BA3FB0030800900F070FB00222146AC
:1003C4004FF0FF3000F036FB002010BD000000208D
:1003D400D34D621008B5074A136843F01003136045
:1003E400032000F015FB0020FFF7DEFFFFF78AFF74
:1003F400002008BD00200240024A13680133136044
:10040400704700BF20000020014B1868704700BFF0
:100414002000002082B0084B1B68084AA2FB03237B
:100424005B0A00FB03F0019000BF019B5A1E01927E
:10043400002BF9D102B0704700000020D34D6210A8
:1004440070B582B00446036813F0010F2CD0AB4B97
:100454005B6803F00C03042B1DD0A84B5B6803F00E
:100464000C03082B12D06368B3F5803F41D0002BF6
:1004740055D103F1804303F504331A6822F4803222
:100484001A601A6822F480221A6037E09B4B5B687A
:1004940013F4803FE7D0994B1B6813F4003F03D05B
:1004A4006368002B00F0AE81236813F0020F76D04E
:1004B400924B5B6813F00C0F5FD0904B5B6803F0BA
:1004C4000C03082B54D02369002B00F08A808C4B3A
:1004D40001221A60FFF798FF0546884B1B6813F04A
:1004E400020F75D1FFF790FF401B0228F5D90320B6
:1004F4008BE1824A136843F480331360636843B327
:10050400FFF782FF05467D4B1B6813F4003FCBD1F8
:10051400FFF77AFF401B6428F5D9032075E1B3F592
:10052400A02F09D0754B1A6822F480321A601A6819
:1005340022F480221A60E1E703F18043A3F53C33FF
:100544001A6842F480221A601A6842F480321A60EF
:10055400D4E7FFF759FF0546684B1B6813F4003FC7
:10056400A2D0FFF751FF401B6428F5D903204CE1CA
:10057400624B5B6813F4803FA5D1604B1B6813F09A
:10058400020F04D02369012B01D001203DE15B4A15
:10059400136823F0F803616943EAC1031360236815
:1005A40013F0080F32D0A369002B5BD0554B012206
:1005B4001A60FFF729FF0546504B5B6A13F0020FE0
:1005C40021D1FFF721FF401B0228F5D903201CE1AC
:1005D4004A4A136823F0F803616943EAC1031360CC
:1005E400DDE7474B00221A60FFF70EFF0546434B39
:1005F4001B6813F0020FD2D0FFF706FF401B02283E
:10060400F5D9032001E10120FFF704FF236813F06B
:10061400040F00F09780394BDB6913F0805F33D10E
:10062400364BDA6942F08052DA61DB6903F08053B9
:100634000193019B0125344B1B6813F4807F25D063
:10064400E368012B36D0002B4CD103F1804303F532
:1006540004331A6A22F001021A621A6A22F00402AE
:100664001A622CE0274B00221A60FFF7CDFE0546E4
:10067400224B5B6A13F0020FC8D0FFF7C5FE401B84
:100684000228F5D90320C0E00025D4E71E4A1368E8
:1006940043F480731360FFF7B7FE06461A4B1B68DA
:1006A40013F4807FCCD1FFF7AFFE801B6428F5D90B
:1006B4000320AAE0114A136A43F001031362E368BA
:1006C40073B3FFF7A1FE06460C4B1B6A13F0020F2F
:1006D40037D1FFF799FE801B41F288339842F3D952
:1006E400032092E0052B11D0044B1A6A22F0010278
:1006F4001A621A6A22F004021A62E0E70010024049
:10070400000042428004424200700040414B1A6A99
:1007140042F004021A621A6A42F001021A62CEE737
:10072400FFF772FE06463B4B1B6A13F0020F08D01C
:10073400FFF76AFE801B41F288339842F3D9032005
:1007440063E0E5B9E369002B5ED0324A526802F0F7
:100754000C02082A5BD0022B17D02F4B00221A6000
:10076400FFF752FE04462B4B1B6813F0007F47D063
:10077400FFF74AFE001B0228F5D9032045E0254A6D
:10078400D36923F08053D361DCE7234B00221A6042
:10079400FFF73AFE05461F4B1B6813F0007F06D097
:1007A400FFF732FE401B0228F5D903202DE0236A0F
:1007B400B3F5803F1AD017494B6823F47413226AA7
:1007C400606A024313434B60134B01221A60FFF724
:1007D4001BFE04460F4B1B6813F0007F0ED1FFF77E
:1007E40013FE001B0228F5D903200EE0094A5368C2
:1007F40023F40033A1680B435360DCE7002004E0DA
:10080400002002E0012000E0002002B070BD0120C1
:10081400FBE700BF001002406000424210B487B002
:10082400164C94E80F000DF1180C0CE90F00238A04
:10083400ADF80430124B5B6803F00C02082A1AD19D
:10084400C3F38342624412F8100C13F4803F05D1C1
:100854000C4B03FB00F007B010BC7047084B5B68FF
:10086400C3F34043634413F8142C074BB3FBF2F374
:1008740000FB03F0EFE70448EDE700BFF00B0008CE
:100884000010024000093D0000127A00594B1B6819
:1008940003F007038B420CD2564A136823F0070374
:1008A4000B431360136803F007038B4201D001204C
:1008B400704770B5036813F0020F06D04E4A5368B0
:1008C40023F0F0038468234353600C460546036811
:1008D40013F0010F52D04368012B23D0022B28D0F0
:1008E400454A126812F0020F00F0828042494A68B9
:1008F40022F0030213434B60FFF786FD06466B6844
:10090400012B1DD0022B2AD03B4B5B6813F00C0F3C
:1009140034D0FFF779FD801B41F288339842F3D934
:10092400032064E0344A126812F4003FDED101204F
:100934005DE0314A126812F0007FD7D1012056E001
:100944002D4B5B6803F00C03042B17D0FFF75CFD01
:10095400801B41F288339842F2D9032047E0264BAA
:100964005B6803F00C03082B08D0FFF74DFD801BD8
:1009740041F288339842F2D9032038E01D4B1B68BA
:1009840003F00703A3420CD91A4A136823F00703A0
:1009940023431360136803F00703A34201D001202B
:1009A40025E02B6813F0040F06D0134A536823F490
:1009B400E063E9680B4353602B6813F0080F07D01A
:1009C4000D4A536823F46053296943EAC103536011
:1009D400FFF724FF084B5B68C3F30313074AD35C98
:1009E400D840074B18600020FFF7DEFC002070BDE4
:1009F4000120FCE70020024000100240100C000817
:100A040000000020014B1868704700BF0000002060
:100A1400074AD36823F4E0631B041B0C000200F4B0
:100A2400E060184340F0BF6040F40030D06070478D
:100A340000ED00E030B4174BDB68C3F30223C3F1CD
:100A44000704042C28BF04241D1D062D18D9033BBC
:100A54004FF0FF3505FA04F421EA0401994005FA40
:100A640003F322EA0303194300280BDB0901C9B28B
:100A740000F1604000F5614080F8001330BC70471D
:100A84000023E5E700F00F000901C9B2024B195435
:100A9400F4E700BF00ED00E014ED00E00138B0F130
:100AA400807F0AD2064B5860064AF02182F8231050
:100AB4000020986007221A6070470120704700BF29
:100AC40010E000E000ED00E0042805D0054A1368BA
:100AD40023F0040313607047024A136843F00403CD
:100AE4001360704710E000E0704708B5FFF7FCFFA3
:100AF40008BD00000F4B1A6842F001021A605968E1
:100B04000D4A0A405A601A6822F0847222F4803234
:100B14001A601A6822F480221A605A6822F4FE02CB
:100B24005A604FF41F029A60044B4FF000629A60BF
:100B3400704700BF001002400000FFF800ED00E025
:100B4400002103E00B4B5B58435004310A480B4B24
:100B540042189A42F6D30A4A02E0002342F8043BC0
:100B6400084B9A42F9D3FFF7C5FF00F00FF8FFF7DF
:100B7400B3FB7047280C000800000020040000208C
:100B84000400002024000020FEE7000070B50025CA
:100B94000C4E0D4CA41BA410A54209D100F01AF868
:100BA40000250A4E0A4CA41BA410A54205D170BD11
:100BB40056F8253098470135EEE756F82530984722
:100BC4000135F2E7200C0008200C0008200C000876
:100BD400240C0008F8B500BFF8BC08BC9E4670475A
:0C0BE400F8B500BFF8BC08BC9E46704786
:100BF00002030405060708090A0B0C0D0E0F10105E
:100C0000010200005372632F6D61696E2E63000054
:100C100000000000000000000102030406070809AC
:040C200009020008BD
:040C2400E5010008DE
:040C280000A24A04D8
:0400000508000B459F
:00000001FF
